{
  "contractName": "TxSecurity",
  "abi": [
    {
      "constant": true,
      "inputs": [
        {
          "name": "",
          "type": "bytes32"
        }
      ],
      "name": "domains",
      "outputs": [
        {
          "name": "owner",
          "type": "address"
        }
      ],
      "payable": false,
      "stateMutability": "view",
      "type": "function"
    },
    {
      "constant": false,
      "inputs": [
        {
          "name": "domain",
          "type": "bytes32"
        }
      ],
      "name": "registerDomain",
      "outputs": [],
      "payable": false,
      "stateMutability": "nonpayable",
      "type": "function"
    },
    {
      "constant": false,
      "inputs": [
        {
          "name": "domain",
          "type": "bytes32"
        }
      ],
      "name": "removeDomain",
      "outputs": [],
      "payable": false,
      "stateMutability": "nonpayable",
      "type": "function"
    },
    {
      "constant": false,
      "inputs": [
        {
          "name": "domain",
          "type": "bytes32"
        },
        {
          "name": "alias",
          "type": "bytes32"
        },
        {
          "name": "addr",
          "type": "string"
        },
        {
          "name": "cryptoType",
          "type": "bytes32"
        },
        {
          "name": "pin",
          "type": "bytes32"
        }
      ],
      "name": "addAlias",
      "outputs": [],
      "payable": false,
      "stateMutability": "nonpayable",
      "type": "function"
    },
    {
      "constant": false,
      "inputs": [
        {
          "name": "domain",
          "type": "bytes32"
        },
        {
          "name": "alias",
          "type": "bytes32"
        }
      ],
      "name": "getAliasData",
      "outputs": [
        {
          "name": "",
          "type": "string"
        },
        {
          "name": "",
          "type": "bytes32"
        },
        {
          "name": "",
          "type": "bytes32"
        }
      ],
      "payable": false,
      "stateMutability": "nonpayable",
      "type": "function"
    },
    {
      "constant": false,
      "inputs": [
        {
          "name": "domain",
          "type": "bytes32"
        }
      ],
      "name": "getAlias",
      "outputs": [
        {
          "name": "",
          "type": "bytes32[]"
        }
      ],
      "payable": false,
      "stateMutability": "nonpayable",
      "type": "function"
    }
  ],
  "bytecode": "0x608060405234801561001057600080fd5b50610ac7806100206000396000f300608060405260043610610078576000357c0100000000000000000000000000000000000000000000000000000000900463ffffffff168063076517761461007d5780630d5560e2146100ae5780631da438e1146100df5780635f4c642e14610165578063a4e6001814610206578063c722f177146102dc575b600080fd5b34801561008957600080fd5b506100ac600480360381019080803560001916906020019092919050505061034d565b005b3480156100ba57600080fd5b506100dd6004803603810190808035600019169060200190929190505050610430565b005b3480156100eb57600080fd5b5061010e6004803603810190808035600019169060200190929190505050610507565b6040518080602001828103825283818151815260200191508051906020019060200280838360005b83811015610151578082015181840152602081019050610136565b505050509050019250505060405180910390f35b34801561017157600080fd5b5061020460048036038101908080356000191690602001909291908035600019169060200190929190803590602001908201803590602001908080601f016020809104026020016040519081016040528093929190818152602001838380828437820191505050505050919291929080356000191690602001909291908035600019169060200190929190505050610580565b005b34801561021257600080fd5b5061024360048036038101908080356000191690602001909291908035600019169060200190929190505050610720565b604051808060200184600019166000191681526020018360001916600019168152602001828103825285818151815260200191508051906020019080838360005b8381101561029f578082015181840152602081019050610284565b50505050905090810190601f1680156102cc5780820380516001836020036101000a031916815260200191505b5094505050505060405180910390f35b3480156102e857600080fd5b5061030b600480360381019080803560001916906020019092919050505061084f565b604051808273ffffffffffffffffffffffffffffffffffffffff1673ffffffffffffffffffffffffffffffffffffffff16815260200191505060405180910390f35b3373ffffffffffffffffffffffffffffffffffffffff16600080836000191660001916815260200190815260200160002060000160009054906101000a900473ffffffffffffffffffffffffffffffffffffffff1673ffffffffffffffffffffffffffffffffffffffff161415156103c457600080fd5b600080826000191660001916815260200190815260200160002060010160006103ed9190610984565b600080826000191660001916815260200190815260200160002060000160006101000a81549073ffffffffffffffffffffffffffffffffffffffff021916905550565b600073ffffffffffffffffffffffffffffffffffffffff16600080836000191660001916815260200190815260200160002060000160009054906101000a900473ffffffffffffffffffffffffffffffffffffffff1673ffffffffffffffffffffffffffffffffffffffff161415156104a857600080fd5b33600080836000191660001916815260200190815260200160002060000160006101000a81548173ffffffffffffffffffffffffffffffffffffffff021916908373ffffffffffffffffffffffffffffffffffffffff16021790555050565b6060600080836000191660001916815260200190815260200160002060010180548060200260200160405190810160405280929190818152602001828054801561057457602002820191906000526020600020905b8154600019168152602001906001019080831161055c575b50505050509050919050565b6000806000876000191660001916815260200190815260200160002090503373ffffffffffffffffffffffffffffffffffffffff168160000160009054906101000a900473ffffffffffffffffffffffffffffffffffffffff1673ffffffffffffffffffffffffffffffffffffffff161415156105fc57600080fd5b60008451141561061157610610868661088d565b5b6000845114158015610657575060008160020160008760001916600019168152602001908152602001600020600001805460018160011615610100020316600290049050145b1561069157806001018590806001815401808255809150509060018203906000526020600020016000909192909190915090600019169055505b83816002016000876000191660001916815260200190815260200160002060000190805190602001906106c59291906109a5565b5082816002016000876000191660001916815260200190815260200160002060010181600019169055508181600201600087600019166000191681526020019081526020016000206002018160001916905550505050505050565b60606000806000806000876000191660001916815260200190815260200160002090508060020160008660001916600019168152602001908152602001600020600001816002016000876000191660001916815260200190815260200160002060010154826002016000886000191660001916815260200190815260200160002060020154828054600181600116156101000203166002900480601f01602080910402602001604051908101604052809291908181526020018280546001816001161561010002031660029004801561083a5780601f1061080f5761010080835404028352916020019161083a565b820191906000526020600020905b81548152906001019060200180831161081d57829003601f168201915b50505050509250935093509350509250925092565b60006020528060005260406000206000915090508060000160009054906101000a900473ffffffffffffffffffffffffffffffffffffffff16905081565b60008060008060008660001916600019168152602001908152602001600020925082600101805490509150600090505b826001018054905081101561090c5782600101818154811015156108dd57fe5b906000526020600020015460001916846000191614156108ff5780915061090c565b80806001019150506108bd565b826001018054905082101561097d5782600101600184600101805490500381548110151561093657fe5b9060005260206000200154836001018381548110151561095257fe5b9060005260206000200181600019169055508260010180548091906001900361097b9190610a25565b505b5050505050565b50805460008255906000526020600020908101906109a29190610a51565b50565b828054600181600116156101000203166002900490600052602060002090601f016020900481019282601f106109e657805160ff1916838001178555610a14565b82800160010185558215610a14579182015b82811115610a135782518255916020019190600101906109f8565b5b509050610a219190610a76565b5090565b815481835581811115610a4c57818360005260206000209182019101610a4b9190610a51565b5b505050565b610a7391905b80821115610a6f576000816000905550600101610a57565b5090565b90565b610a9891905b80821115610a94576000816000905550600101610a7c565b5090565b905600a165627a7a7230582024366bbcbefef54497f62d54855f815828f3759b9fdd68aea84b7d9b4e0e427b0029",
  "source": "pragma solidity ^0.4.24;\n\ncontract TxSecurity {\n    struct Alias {\n        string addr; // address of a cryptocurrency\n        bytes32 cryptoType; // type of the cryptocurrency\n        bytes32 pin; // for transfer verification\n    }\n\n    struct Domain {\n        address owner;\n        bytes32[] alias;\n        mapping(bytes32 => Alias) aliasData;\n    }\n\n    // domain hash => [Domain]\n    mapping(bytes32 => Domain) public domains;\n\n    function registerDomain(bytes32 domain) external {\n        // domain must be available\n        require(domains[domain].owner == address(0x0));\n        domains[domain].owner = msg.sender;\n    }\n\n    function removeDomain(bytes32 domain) external {\n        // must be owner\n        require(domains[domain].owner == msg.sender);\n        delete domains[domain].alias;\n        delete domains[domain].owner;\n    }\n\n    function removeAlias(bytes32 domain, bytes32 alias) internal {\n        Domain storage d = domains[domain];\n        uint idx = d.alias.length;\n        for(uint i = 0; i < d.alias.length; i++) {\n            if (alias == d.alias[i]) {\n                idx = i;\n                break;\n            }\n        }\n        if (idx < d.alias.length) {\n            d.alias[idx] = d.alias[d.alias.length - 1];\n            d.alias.length--;\n        }\n    }\n\n    function addAlias(bytes32 domain, bytes32 alias, string addr, bytes32 cryptoType, bytes32 pin) public {\n        Domain storage d = domains[domain];\n\n        // must be owner\n        require(d.owner == msg.sender);\n\n        // remove an existing alias\n        if (bytes(addr).length == 0) {\n            removeAlias(domain, alias);\n        }\n\n        // add a new alias\n        if (bytes(addr).length != 0 && bytes(d.aliasData[alias].addr).length == 0) {\n            d.alias.push(alias);\n        }\n\n        // overwrite existing alias data\n        d.aliasData[alias].addr = addr;\n        d.aliasData[alias].cryptoType = cryptoType;\n        d.aliasData[alias].pin = pin;\n    }\n\n    function getAliasData(bytes32 domain, bytes32 alias) external returns (string, bytes32, bytes32) {\n        Domain storage d = domains[domain];\n        return (d.aliasData[alias].addr, d.aliasData[alias].cryptoType, d.aliasData[alias].pin);\n    }\n\n    function getAlias(bytes32 domain) external returns (bytes32[]) {\n        return domains[domain].alias;\n    }\n}\n",
  "sourcePath": "/root/projects/TxSecurity/contracts/TxSecurity.sol",
  "compiler": {
    "name": "solc",
    "version": "0.4.24+commit.e67f0147.Emscripten.clang"
  },
  "schemaVersion": "2.0.1",
  "updatedAt": "2019-01-04T08:45:27.816Z"
}