{
  "contractName": "TxSecurity",
  "abi": [
    {
      "constant": false,
      "inputs": [
        {
          "name": "to",
          "type": "address"
        },
        {
          "name": "secret",
          "type": "bytes32"
        }
      ],
      "name": "send",
      "outputs": [],
      "payable": true,
      "stateMutability": "payable",
      "type": "function"
    },
    {
      "constant": false,
      "inputs": [
        {
          "name": "id",
          "type": "uint256"
        },
        {
          "name": "pwd",
          "type": "string"
        }
      ],
      "name": "receive",
      "outputs": [],
      "payable": false,
      "stateMutability": "nonpayable",
      "type": "function"
    },
    {
      "constant": false,
      "inputs": [
        {
          "name": "id",
          "type": "uint256"
        }
      ],
      "name": "cancel",
      "outputs": [],
      "payable": false,
      "stateMutability": "nonpayable",
      "type": "function"
    },
    {
      "constant": true,
      "inputs": [
        {
          "name": "user",
          "type": "address"
        }
      ],
      "name": "getTransferListLen",
      "outputs": [
        {
          "name": "",
          "type": "uint256"
        }
      ],
      "payable": false,
      "stateMutability": "view",
      "type": "function"
    },
    {
      "constant": true,
      "inputs": [
        {
          "name": "user",
          "type": "address"
        },
        {
          "name": "startId",
          "type": "uint256"
        }
      ],
      "name": "getTransferList",
      "outputs": [
        {
          "name": "data",
          "type": "bytes32[]"
        }
      ],
      "payable": false,
      "stateMutability": "view",
      "type": "function"
    }
  ],
  "bytecode": "0x608060405234801561001057600080fd5b50610e79806100206000396000f30060806040526004361061006d576000357c0100000000000000000000000000000000000000000000000000000000900463ffffffff1680632e3f2f731461007257806340e58ee5146100c95780635922170e146100f65780636e6d15551461013a578063a4e77870146101dc575b600080fd5b34801561007e57600080fd5b506100b3600480360381019080803573ffffffffffffffffffffffffffffffffffffffff169060200190929190505050610221565b6040518082815260200191505060405180910390f35b3480156100d557600080fd5b506100f46004803603810190808035906020019092919050505061026d565b005b610138600480360381019080803573ffffffffffffffffffffffffffffffffffffffff1690602001909291908035600019169060200190929190505050610532565b005b34801561014657600080fd5b50610185600480360381019080803573ffffffffffffffffffffffffffffffffffffffff1690602001909291908035906020019092919050505061089a565b6040518080602001828103825283818151815260200191508051906020019060200280838360005b838110156101c85780820151818401526020810190506101ad565b505050509050019250505060405180910390f35b3480156101e857600080fd5b5061021f60048036038101908080359060200190929190803590602001908201803590602001919091929391929390505050610acb565b005b6000600160008373ffffffffffffffffffffffffffffffffffffffff1673ffffffffffffffffffffffffffffffffffffffff168152602001908152602001600020805490509050919050565b60008080549050821015156102ea576040517f08c379a000000000000000000000000000000000000000000000000000000000815260040180806020018281038252600a8152602001807f496e76616c69642049440000000000000000000000000000000000000000000081525060200191505060405180910390fd5b6000828154811015156102f957fe5b906000526020600020906006020160000160009054906101000a900473ffffffffffffffffffffffffffffffffffffffff1673ffffffffffffffffffffffffffffffffffffffff163373ffffffffffffffffffffffffffffffffffffffff161415156103cd576040517f08c379a000000000000000000000000000000000000000000000000000000000815260040180806020018281038252600e8152602001807f496e76616c69642073656e64657200000000000000000000000000000000000081525060200191505060405180910390fd5b600080838154811015156103dd57fe5b90600052602060002090600602016002015414151515610465576040517f08c379a00000000000000000000000000000000000000000000000000000000081526004018080602001828103825260168152602001807f56616c7565206d757374206265206e6f6e2d7a65726f0000000000000000000081525060200191505060405180910390fd5b60008281548110151561047457fe5b90600052602060002090600602016002015490506000808381548110151561049857fe5b9060005260206000209060060201600201819055503373ffffffffffffffffffffffffffffffffffffffff166108fc829081150290604051600060405180830381858888f193505050501580156104f3573d6000803e3d6000fd5b50600260008381548110151561050557fe5b906000526020600020906006020160050160006101000a81548160ff021916908360ff1602179055505050565b600073ffffffffffffffffffffffffffffffffffffffff168273ffffffffffffffffffffffffffffffffffffffff16141515156105d7576040517f08c379a00000000000000000000000000000000000000000000000000000000081526004018080602001828103825260108152602001807f496e76616c69642072656365697665720000000000000000000000000000000081525060200191505060405180910390fd5b60003411151561064f576040517f08c379a000000000000000000000000000000000000000000000000000000000815260040180806020018281038252600d8152602001807f56616c756520746f6f206c6f770000000000000000000000000000000000000081525060200191505060405180910390fd5b600060c0604051908101604052803373ffffffffffffffffffffffffffffffffffffffff1681526020018473ffffffffffffffffffffffffffffffffffffffff16815260200134815260200183600019168152602001428152602001600060ff168152509080600181540180825580915050906001820390600052602060002090600602016000909192909190915060008201518160000160006101000a81548173ffffffffffffffffffffffffffffffffffffffff021916908373ffffffffffffffffffffffffffffffffffffffff16021790555060208201518160010160006101000a81548173ffffffffffffffffffffffffffffffffffffffff021916908373ffffffffffffffffffffffffffffffffffffffff16021790555060408201518160020155606082015181600301906000191690556080820151816004015560a08201518160050160006101000a81548160ff021916908360ff160217905550505050600160003373ffffffffffffffffffffffffffffffffffffffff1673ffffffffffffffffffffffffffffffffffffffff1681526020019081526020016000206001600080549050039080600181540180825580915050906001820390600052602060002001600090919290919091505550600160008373ffffffffffffffffffffffffffffffffffffffff1673ffffffffffffffffffffffffffffffffffffffff16815260200190815260200160002060016000805490500390806001815401808255809150509060018203906000526020600020016000909192909190915055505050565b606080600080600060326040519080825280602002602001820160405280156108d25781602001602082028038833980820191505090505b5093508592505b600083121580156108ed5750600a86038312155b15610abe5782860391506000600160008973ffffffffffffffffffffffffffffffffffffffff1673ffffffffffffffffffffffffffffffffffffffff1681526020019081526020016000208481548110151561094557fe5b906000526020600020015481548110151561095c57fe5b906000526020600020906006020190508060000160009054906101000a900473ffffffffffffffffffffffffffffffffffffffff1673ffffffffffffffffffffffffffffffffffffffff1660010284600584028151811015156109bb57fe5b906020019060200201906000191690816000191681525050806002015460010284600160058502018151811015156109ef57fe5b90602001906020020190600019169081600019168152505080600301548460026005850201815181101515610a2057fe5b90602001906020020190600019169081600019168152505080600401546001028460036005850201815181101515610a5457fe5b9060200190602002019060001916908160001916815250508060050160009054906101000a900460ff1660ff166001028460046005850201815181101515610a9857fe5b9060200190602002019060001916908160001916815250508280600190039350506108d9565b8394505050505092915050565b6000808054905084101515610b48576040517f08c379a000000000000000000000000000000000000000000000000000000000815260040180806020018281038252600a8152602001807f496e76616c69642049440000000000000000000000000000000000000000000081525060200191505060405180910390fd5b600084815481101515610b5757fe5b906000526020600020906006020160010160009054906101000a900473ffffffffffffffffffffffffffffffffffffffff1673ffffffffffffffffffffffffffffffffffffffff163373ffffffffffffffffffffffffffffffffffffffff16141515610c2b576040517f08c379a00000000000000000000000000000000000000000000000000000000081526004018080602001828103825260108152602001807f496e76616c69642072656365697665720000000000000000000000000000000081525060200191505060405180910390fd5b60008085815481101515610c3b57fe5b90600052602060002090600602016002015414151515610cc3576040517f08c379a00000000000000000000000000000000000000000000000000000000081526004018080602001828103825260168152602001807f56616c7565206d757374206265206e6f6e2d7a65726f0000000000000000000081525060200191505060405180910390fd5b600084815481101515610cd257fe5b90600052602060002090600602016003015460001916838360405180838380828437820191505092505050604051809103902060001916141515610d7e576040517f08c379a00000000000000000000000000000000000000000000000000000000081526004018080602001828103825260108152602001807f496e76616c69642070617373776f72640000000000000000000000000000000081525060200191505060405180910390fd5b600084815481101515610d8d57fe5b906000526020600020906006020160020154905060008085815481101515610db157fe5b9060005260206000209060060201600201819055503373ffffffffffffffffffffffffffffffffffffffff166108fc829081150290604051600060405180830381858888f19350505050158015610e0c573d6000803e3d6000fd5b506001600085815481101515610e1e57fe5b906000526020600020906006020160050160006101000a81548160ff021916908360ff160217905550505050505600a165627a7a723058208f97645e56c523848743932981fd66cafa0a5b6f88ae8736b95e9d176357c0f70029",
  "source": "pragma solidity ^0.4.24;\n\ncontract TxSecurity {\n    struct Transfer {\n        address from;\n        address to;\n        uint val;\n        bytes32 secret;\n        uint timestamp;\n        uint8 status; // 0: init 1: received 2: cancelled\n    }\n\n    Transfer[] transfers;\n\n    // addres => tx list\n    mapping(address => uint[]) userTransfers;\n\n    function send(address to, bytes32 secret) external payable {\n        require(to != address(0x0), \"Invalid receiver\");\n        require(msg.value > 0, \"Value too low\");\n\n        transfers.push(Transfer(msg.sender, to, msg.value, secret, block.timestamp, 0));\n        userTransfers[msg.sender].push(transfers.length - 1);\n        userTransfers[to].push(transfers.length - 1);\n    }\n\n    function receive(uint id, string pwd) external {\n        require(id < transfers.length, \"Invalid ID\");\n        require(msg.sender == transfers[id].to, \"Invalid receiver\");\n        require(transfers[id].val != 0, \"Value must be non-zero\");\n        require(keccak256(bytes(pwd)) == transfers[id].secret, \"Invalid password\");\n\n        uint _val = transfers[id].val;\n        transfers[id].val = 0;\n        msg.sender.transfer(_val);\n        transfers[id].status = 1;\n    }\n\n    function cancel(uint id) external {\n        require(id < transfers.length, \"Invalid ID\");\n        require(msg.sender == transfers[id].from, \"Invalid sender\");\n        require(transfers[id].val != 0, \"Value must be non-zero\");\n\n        uint _val = transfers[id].val;\n        transfers[id].val = 0;\n        msg.sender.transfer(_val);\n        transfers[id].status = 2;\n    }\n\n    function getTransferListLen(address user) external view returns (uint) {\n        return userTransfers[user].length;\n    }\n\n    function getTransferList(address user, uint startId)\n        external\n        view\n        returns\n        (bytes32[] data) {\n\n        // batch of ten\n        bytes32[] memory _data = new bytes32[](50);\n\n        for(int i = (int)(startId); i >= 0 && i >= (int)(startId) - 10; i--) {\n            int j = (int)(startId) - i;\n            Transfer storage t = transfers[userTransfers[user][(uint)(i)]];\n            _data[(uint)(j * 5)] = bytes32(t.from);\n            _data[(uint)(j * 5 + 1)] = bytes32(t.val);\n            _data[(uint)(j * 5 + 2)] = bytes32(t.secret);\n            _data[(uint)(j * 5 + 3)] = bytes32(t.timestamp);\n            _data[(uint)(j * 5 + 4)] = bytes32(t.status);\n        }\n        return (_data);\n    }\n}\n",
  "sourcePath": "/root/projects/TxSecurity/contracts/TxSecurity.sol",
  "compiler": {
    "name": "solc",
    "version": "0.4.24+commit.e67f0147.Emscripten.clang"
  },
  "schemaVersion": "2.0.1",
  "updatedAt": "2018-12-16T21:36:01.208Z"
}